:020000040800F2
:10000000904C00205D020008373300081F2B0008C9
:100010003533000879070008393C0008000000006B
:100020000000000000000000000000009D0100082A
:10003000090C000800000000F901000899350008CB
:1000400077020008770200087702000877020008AC
:10005000770200087702000877020008770200089C
:10006000770200087702000877020008770200088C
:10007000290B0008770200087702000877020008C1
:10008000770200087702000877020008770200086C
:100090007D07000877020008770200087702000851
:1000A000770200087702000877020008770200084C
:1000B000653600087702000877020008770200081A
:1000C000770200087702000877020008770200082C
:1000D00077020008153C000877020008213C000860
:1000E000770200087702000877020008770200080C
:1000F00071360008770200087702000877020008CE
:1001000077020008770200087702000877020008EB
:1001100077020008770200087702000877020008DB
:10012000350B0008410B00084D0B0008590B000867
:1001300077020008770200087702000877020008BB
:100140008907000877020008770200087702000894
:100150007702000877020008770200082D3C0008AB
:10016000770200087702000877020008770200088B
:1001700077020008770200087702000800000000FC
:100180007702000877020008DFF80CD000F0E2FAEE
:1001900000480047F93C0008904C00202C4B19689F
:1001A0000868B0E8F04F80F30988BFF36F8F4FF015
:1001B000000080F3118870470000000008480068C4
:1001C000006880F308884FF0000080F3148862B65E
:1001D00061B6BFF34F8FBFF36F8F00DF00BF00BF6B
:1001E00008ED00E0DFF80C00016841F470010160E7
:1001F000704700BF88ED00E0EFF30980BFF36F8F19
:10020000134B1A681EF0100F08BF20ED108A20E96A
:10021000F04F106009B44FF0500080F31188BFF325
:100220004F8FBFF36F8F04F0DFF94FF0000080F3C2
:10023000118809BC19680868B0E8F04F1EF0100F6B
:1002400008BFB0EC108A80F30988BFF36F8F704746
:1002500028000020EFF30580704700000648804723
:1002600006480047FEE7FEE7FEE7FEE7FEE7FEE79B
:10027000FEE7FEE7FEE7FEE74936000889010008D1
:100280002DE9F05F0546002092469B4688460646CB
:10029000814640241BE0284641464746224600F05E
:1002A000DAF953465A46C01A914110D311461846FE
:1002B000224600F0C1F92D1A67EB01084F4622468D
:1002C0000120002100F0B8F917EB00094E41201E73
:1002D000A4F10104DFDC484631462A464346BDE826
:1002E000F09F40EA01039B0703D009E008C9121FF1
:1002F00008C0042AFAD203E011F8013B00F8013BE0
:10030000521EF9D27047D2B201E000F8012B491E0B
:10031000FBD270470022F6E710B513460A460446A2
:100320001946FFF7F0FF204610BD2DE9FE4F80462D
:1003300081EA0300C00F0C46009021F0004123F039
:100340000045B8EB0200A94105D24046214690463F
:100350001C460B46024623F00040104347D0270DB1
:10036000C7F30A00C3F30A510290401A01904028D3
:100370006BDAC3F3130040F4801B0098924620B15F
:100380000023D2EB030A63EB0B0B01985946C0F133
:100390004002504600F050F906460D465046594678
:1003A000019A00F068F910EB08006141002487EA27
:1003B000115284EAE7731A4340D0009A62B3019A5B
:1003C000012A4FEA075215DC001B61EB02014FF0D6
:1003D000004202EA0752CDE90042001C41F58011BB
:1003E00032462B4600F068F903B0BDE8F08F404676
:1003F0002146F9E7001B61EB0201001C41F5801367
:1004000000185B412018A2F5001747EB030140EAF2
:10041000D570B6196D4111E06D084FEA360645EA10
:10042000C0754FEA0752001B61EB0201001C41F549
:10043000801149084FEA30000019514132462B46DD
:1004400003B0BDE8F04F00F028B900980122400049
:100450000023D0EB020263EBE073009821464FEAE1
:10046000E074B8EB000061EB0401E9E783F00043BE
:100470005BE781F0004158E72DE9FE4F81EA030474
:1004800004F0004421F0004100944FF0000B23F0F1
:10049000004350EA01045ED052EA03045BD0C3F388
:1004A0000A54C1F30A552C44A4F2F3340194A0FB7E
:1004B0000254C1F3130141F48011C3F3130343F455
:1004C000801301FB024400FB034E840A970A44EAAE
:1004D000815447EA8357A4FB076802958D0A05FB00
:1004E00007854FEA932C04FB0C542705029D4FEA25
:1004F000065847EA1637B5EB08056EEB070C870E72
:10050000920E47EA811742EA8312A7FB0201B6EB7B
:100510000B0164EB00042B0D43EA0C335E1844EB33
:100520001C50DA465146E7FB0201C5F313044FEABB
:100530000B3343EA14534FEA0432019C43EA0603A7
:10054000A4F10C040294009CCDE900B400F0B4F8CE
:1005500003B0BDE8F08F00200146F9E70EB5C10FEA
:1005600080EAE0700844CA07002140F233438DE876
:100570000E000A460B4600F09FF803B000BD0EB512
:1005800040F2334102910021CDE900110A460B46A9
:1005900000F092F803B000BD70B5C1F30A5201F04B
:1005A00000450024C1F3130140F2FF3341F48011F0
:1005B0009A4201DA002070BD40F233439A42A2F21F
:1005C000334203DC524200F046F800E090402C43F6
:1005D000F1D0404270BD000030B5041E71F100043E
:1005E00004DB4FF00044404264EB0101141E73F140
:1005F000000405DB1C464FF00043524263EB04034A
:100600008B4208BF824230BD30B5041E71F1000438
:1006100004DB4FF00044404264EB0101141E73F10F
:10062000000405DB1C464FF00043524263EB040319
:10063000994208BF904230BD202A04DB203A00FADC
:1006400002F1002070479140C2F1200320FA03F329
:10065000194390407047202A04DB203A21FA02F027
:100660000021704721FA02F3D040C2F120029140EC
:10067000084319467047202A06DBCB17203A41FA77
:1006800002F043EAE07306E041FA02F3D040C2F11F
:100690002002914008431946704710B5141E73F1AB
:1006A000000408DA401C41F1000192185B411A4332
:1006B00001D120F0010010BD2DE9F04D92469B467E
:1006C00011B1B1FA81F202E0B0FA80F22032904624
:1006D000FFF7B2FF04460F4640EA0A0041EA0B0169
:1006E00053465A46084313D0114653EA010019D025
:1006F000C8F140025046FFF7AEFF05460E46504691
:1007000059464246FFF798FF084305D0012004E010
:1007100020463946BDE8F08D0020054346EAE076E4
:100720002C4337430A986305E40AA0EB0800002233
:10073000FD0A44EA47540A3002D500200146E9E7A1
:10074000010510196941DDE9084500196941BDE855
:10075000F04DA2E7064C074D06E0E06840F00103CB
:1007600094E8070098471034AC42F6D3FFF710FD29
:10077000084C0008284C0008FEE70000014800F083
:10078000B6BB0000AC000020014800F0B0BB000088
:10079000D400002010B50A88C2F30A02A2F58062D4
:1007A00002604A788B78D20842EA4312C2F30A0206
:1007B000A2F5806242608A78CB78920942EA83028D
:1007C0000B7942EA8322C2F30A02A2F580628260B8
:1007D0000A794B79520842EAC312C2F30A02A2F51F
:1007E0008062C2604A79920902614A79C2F30112B9
:1007F0004261CA8802830A8942834A8982830A7BCA
:1008000002624A7B4262897B018501F03DF804491E
:1008100008604A68821AB2F5FA7F00D9486010BDB4
:10082000A00000202DE9F041054690B012480024B8
:10083000DFF848802746C5F8200100BF04EB4401DB
:1008400008EB810005EB84060C30C6F82401402239
:100850000B49684606F58076FFF743FD05EB8410EB
:1008600040226946FFF73DFD3760641C3761042C68
:10087000E4DB10B0BDE8F081FC47002030480020E8
:10088000204A00082DE9F047D0F8201104464FF423
:10089000FA7791F828004FF00005C207D4F8440118
:1008A00001D0401D03E0B84204DDA0F5FA70C4F8A1
:1008B000440101E0C4F8445191F828008207D4F8BB
:1008C000480101D5401D03E0B84204DDA0F5FA70EF
:1008D000C4F8480101E0C4F84851B1F918000326F2
:1008E000DFF810916FF009086FF0040A0A2801DAA6
:1008F00040450BDC90FBF6F0514603F035FA05213C
:1009000003F054FAD4F84C1108440AE0D4F84C012E
:10091000B84202DDA0F5FA7003E0484504DA00F5BC
:10092000FA70C4F84C0101E0C4F84C51D4F820012D
:10093000B0F918000A2801DA40450BDC90FBF6F00C
:10094000514603F011FA052103F030FAD4F85011A2
:10095000081A0AE0D4F85001B84202DDA0F5FA7096
:1009600003E0484504DA00F5FA70C4F8500101E0EC
:10097000C4F85051D4F8201191F828004007D4F859
:10098000540101D5401D03E0B84204DDA0F5FA7022
:10099000C4F8540101E0C4F8545191F8280000074C
:1009A000D4F8580101D5401D03E0B84204DDA0F59C
:1009B000FA70C4F8580101E0C4F85851D4E955253B
:1009C000A91AD4F84C01521B0B18D4F85011024448
:1009D0005B1AC4F81031D4E95163F71A07447F1A3F
:1009E000521AC4E945729A1B1044401AC4F81C01FB
:1009F000BDE8F0870CFEFFFF07490368B1F902204C
:100A0000934201DC1A4600E00260B1F900108A420C
:100A100000DA016070470000880000202DE9F041F5
:100A20000546002605EB8604D4F81001FFF796FD75
:100A300005EB8617C7E90001D4F82401B0F90600D8
:100A4000FFF78CFDC7E90201384602F075FC51EC56
:100A5000100BFFF7A1FDC4F8000104F58070FFF74B
:100A6000CBFF761C042EDDDB284600F011F8B5F82C
:100A70000C0103B2B5F8080102B2B5F8040101B2E5
:100A8000B5F80001BDE8F04100B203F00FBC000072
:100A900070B500212DED028B05460A4605EB82005C
:100AA000521CD0F82401042AB0F902000144F5DBFD
:100AB0004FF47A704143C81701EB9040801342F223
:100AC000107188421BDB411A91FBF0F0C0F101006C
:100AD000FFF744FD41EC180B5FF0000405EB8406C2
:100AE000D6F80001FFF73AFD53EC182BFFF7C4FCD2
:100AF000FFF752FD641CC6F80001042CEEDBBDECD0
:100B0000028B70BD642003F00BFD0648FFF78AFEE0
:100B10000448FFF7B7FE0348FFF780FF012003F00A
:100B200067F9F5E7F8430020014800F067BC0000D2
:100B300008060020014800F061BC0000A803002066
:100B4000014800F05BBC000068060020014800F08E
:100B500055BC0000A8050020014800F04FBC000073
:100B60000804002001681823CAB2103AB2FBF3F25D
:100B7000054B6FF30901032A9B5CC36500D9091D6E
:100B80008165084670470000004A000810B501461C
:100B900000208B698A6A4FF0C07453B1B3F5005FCF
:100BA00015D072B1012A0CD0022A0AD0032A09D129
:100BB00004E01AB1012A06D0022A03D1C96AC90188
:100BC00000D5012010BDC96AA142FAD010BD002A8B
:100BD000F7D0012AF2D0022AF3D0032AF3D010BDB5
:100BE00030B50468256825F48025256004686360B5
:100BF0008368402B036803D099600068C26030BDF1
:100C00009A600068C16030BD7047704790F820203E
:100C1000012A07D0022A05D0416A41F480214162AD
:100C200001207047006842690A4342610020704712
:100C3000F0B590F820500468A468012D05D0022D6D
:100C400003D0416A41F4802153E014F0406F01D198
:100C5000E5004BD5C4F30164022C03D9416A41F489
:100C6000000146E00125A5401D608D684FF4C0736A
:100C70009DB1CE6835434E6845EAC605066803EB6C
:100C80000417F5514FF4C275076805EB04150E699A
:100C90007E51097D012905D009E00E88CD6845EA1D
:100CA0004655EBE701684E5946F480764E5111796E
:100CB000D2F805504FF4C67641EA0525016806EBE7
:100CC00004168D511178D2F801204FF4C47541EA11
:100CD0000221026805EB04155151006803EB041171
:100CE000425842F0010242500020F0BD416A41F4F6
:100CF000001141620120F0BD10B590F82020012ABA
:100D000007D0022A05D0416A41F4802141620120C6
:100D100010BD3B48D0F8002242F00102C0F800228A
:100D2000D0F8002222F47C52C0F80022D0F8002231
:100D30004B6A42EA0322C0F800220A7D02F01F0338
:100D400001229A40D0F81C329343C0F81C32CB6980
:100D5000B3B9D0F80C329343C0F80C328C894B688D
:100D600064F31F434C6900EBC404C4F840320C899F
:100D70000B6864F31F434C6900EBC404C4F84432AD
:100D8000CB69012B16D1D0F80C321343C0F80C32CA
:100D90000C884B6864F31F434C6900EBC404C4F82F
:100DA00040320C89CB6864F31F434C6900EBC404E8
:100DB000C4F844328B69002BD0F804320ED01343B0
:100DC000C0F804320B69002BD0F8143208D013435A
:100DD000C0F81432096A012904D008E09343EFE710
:100DE0009343F5E7D0F81C121143C0F81C12D0F859
:100DF000001221F00101C0F80012002010BD000017
:100E000000640040704730B590F82040012C05D0B8
:100E1000022C03D0416A41F480215DE0046800297E
:100E200055D02469A40754D04FF4D874056804EB56
:100E300001142D5915F00405956005682D594ED003
:100E4000ED08556005682C5904F00204D4604FF495
:100E5000DA74056804EB01142D5905F00F051561CE
:100E600005682D59C5F30725956105682C59240C93
:100E700054614FF4DC72046802EB0112A4581C7038
:100E80000468A458240A5C700468A458240C9C705C
:100E90000468A258120EDA704FF4DE72046802EB96
:100EA0000112A4581C710468A458240A5C710468D7
:100EB000A458240C9C710468A258120EDA710068C0
:100EC00081B1016941F020010161002030BDE46879
:100ED000A8E7416A41F400114162012030BD6D0D67
:100EE0001560AFE7C16841F02001C160EDE72DE971
:100EF000F05F0546006800244669D0F804908768D2
:100F0000D0F80CB0D0F810A0D0F81880F10748D075
:100F1000F90714D001218160B80703D5284600F0F5
:100F200054FA0CE0780702D54FF4006407E0380764
:100F300002D54FF4805402E0284600F045FAF80547
:100F400016D529684FF480708860B80503D5284607
:100F500000F03DFA0CE0780502D544F4005407E0B7
:100F6000380502D544F4804402E0284600F02EFA09
:100F7000F80316D529684FF480308860B80303D58C
:100F8000284600F026FA0CE0780302D544F4004429
:100F900007E0380302D544F4803402E0284600F02C
:100FA00017FA300707D55FEACB6004D5296810200F
:100FB00044F40074C86070074FF0080707D55FEA73
:100FC0000B7004D52868C760284600F099F9B0076F
:100FD00006D52868C068800702D0284600F092F93C
:100FE000700607D55FEACA6004D52968102044F46A
:100FF00080640861B00607D55FEA0A7004D52868E6
:101000000761284600F0B0F9F00606D528680069A7
:10101000800702D0284600F0A8F9B00308D55FEA9F
:10102000C96005D5296810204860284600F09EF95F
:10103000F00307D55FEA097004D5286847602846A1
:1010400000F0C8F9300446D55FEA497040D5F00594
:1010500004D55FEAC87001D044F00104B00504D59E
:101060005FEA887001D544F00204700504D55FEA98
:10107000487001D544F00404300529D518F0700FEC
:1010800026D008F07000402815D006DC102809D0C2
:1010900020280AD0302816D10AE050280ED0602827
:1010A00011D10EE044F008040DE044F010040AE011
:1010B00044F0200407E044F0400404E044F08004DD
:1010C00001E044F480742868816921F07001816135
:1010D000296804204860002C05D0686A20436862B3
:1010E0002846FFF78FFEBDE8F09F70B5040003D0DF
:1010F00094F8200010B104E0012070BD204600F0FB
:1011000081F82068016821F00201016000F0BCFB59
:101110000546052604E000F0B7FB401B0A2811D85D
:10112000206840688007F6D42068016841F001011A
:10113000016000F0A9FB05460BE000F0A5FB401B99
:101140000A2806D9606A40F40030606284F82060A2
:10115000D2E720684068C007EFD0207E01282068D1
:1011600001683DD021F080010160607E0128206887
:10117000016838D021F040010160A07E012820687C
:10118000016833D021F020010160E07E0128206851
:1011900001682ED041F010010160207F01282068F5
:1011A000016829D021F008010160607F01282068D2
:1011B000016824D021F004010160D4E90201084350
:1011C000D4E90412114308436168491E08432168A9
:1011D000C86100206062012084F82000002070BDFA
:1011E00041F08001C0E741F04001C5E741F0200136
:1011F000CAE721F01001CFE741F00801D4E741F040
:101200000401D9E7F0B587B0044614216846FFF71A
:1012100081F8364B3648DFF8D0E01968D4F800C0C2
:10122000334A03250226092710300024491CF445BF
:1012300022D11960012907D1016841F000710160D4
:10124000006800F000700590106840F00800106021
:101250001068CDE9005600F00800CDE90470694639
:101260002448CDE9024500F027FA00220F2114207E
:1012700000F096FB142032E0DFF87CE0F44530D13A
:10128000D0F800C04CF0806CC0F800C0D0F800C0AE
:1012900001290CF0806CCDF814C0196007D10168E9
:1012A00041F000710160006800F000700590106866
:1012B00040F002001060106802AB00F002000590E0
:1012C0006020CDE9000683E8B00069460B4800F0D5
:1012D000F3F900220F21402000F062FB402000F0D3
:1012E00051FB07B0F0BD000000640040000000208A
:1012F00030380240000C0240006800400004024008
:101300007047000000B589B007AB6A460021FFF7BF
:101310007AFD00981249A0F50070082817D20A88B3
:10132000C0B2521C00EB40030A800E48BDF81C20DE
:1013300000EB830052BA8280BDF81E2052BAC280F0
:10134000BDF8202052BA02819DF8222082720888BE
:10135000B0F5FA7F01D10020088009B000BD00007F
:10136000A8000020304800207047704770470000F8
:1013700070B5044690F82000012804D0606A40F45B
:101380000020606218E0022084F8200020680168D4
:1013900021F00101016000F077FA05460EE000BF80
:1013A00000F072FA401B0A2808D9606A40F4003045
:1013B0006062052084F82000012070BD206840682C
:1013C000C007EDD1606270BD7047704770477047CD
:1013D00070477047704790F83510022903D080217C
:1013E000416501207047052180F8351000680168CB
:1013F00021F0010101600020704700002DE9F84351
:1014000004464FF00009CDF8009063484FF41651A0
:10141000A56D0068B0FBF1F72E6894F85C10082009
:1014200000FA01F131420FD021680A6852070BD54A
:101430000A6822F004020A6094F85C108840A860F0
:10144000606D40F00100606594F85C104FF0010899
:1014500008FA01F0304208D021684969090604D52C
:10146000A860606D40F00200606594F85C10042094
:101470008840304208D021680968890704D5A860EF
:10148000606D40F00400606594F85C1010208840A6
:10149000304218D021680968090714D5A86020686F
:1014A0000168490304D50068000308D5A16C07E072
:1014B0000168C90503D4016821F008010160216CAD
:1014C00009B12046884794F85C10202088403042BB
:1014D00031D021680968C9062DD5A86094F8350077
:1014E00005282068016806D0490347D50068000335
:1014F0001DD4616C1CE021F0160101602068416977
:1015000021F080014161206C08B9A06C20B12068F5
:10151000016821F00801016094F85C103F208840C8
:10152000A86084F8349084F83580216D1FE0E16B69
:1015300009B120468847606D00282BD0606DC00738
:1015400014D0052084F835002068016821F00101DD
:1015500001600098401C0090B84203D820680068E1
:10156000C007F6D184F8349084F83580E16C002906
:1015700010D001B02046BDE8F04308470168C90516
:10158000D5D4016821F01001016084F8349084F80A
:101590003580CCE7BDE8F883240000202DE9F04138
:1015A000044600F071F906465CB1002584F8345019
:1015B000022084F835002068016821F001010160F3
:1015C0000DE00120BDE8F08100F05EF9801B0528E8
:1015D00005D920206065032084F83500F2E72068F3
:1015E0000068C007F0D12268116820480140D4E9A2
:1015F00001031843D4E9033633431843636918439E
:10160000A3691843E3691843236A18430843616ACE
:10161000042903D1D4E90B1319430843106020684F
:101620004069666A20F0070130460E43012704280E
:101630000CD1A06A0643E06A40B12046FFF7A6FA43
:1016400020B14020606584F83570BAE720684661B3
:101650002046FFF787FA94F85C203F219140816093
:10166000656584F835700020ACE700003F8010F01D
:1016700070B5044690F83400002501280CD00120F4
:1016800084F8340094F835600020012E06D084F8E8
:1016900034000225284670BD022070BD022684F861
:1016A000356060652046FFF79BFA2068016841F0CD
:1016B00001010160EEE700002DE9F84F00224FF034
:1016C000010803254FF00F0E0B6808FA02F42340BF
:1016D000A3426ED14E68012E05D0022E03D0112EEA
:1016E00001D0122E12D186684FEA420C05FA0CF78F
:1016F000BE43CF6807FA0CF7374387604668A643B6
:101700000C79C4F30014944034434460C668570015
:1017100005FA07FC8C6826EA0C06BC403443C4601A
:101720004C68022C01D0122C13D1D40800EB840495
:10173000A346D4F8209054074FEAD46A0EFA0AF66A
:1017400029EA06090E6906FA0AF646EA0906CBF8FE
:10175000206006680C7926EA0C0604F00304BC40FD
:10176000344304604C68E40065D5364C266846F482
:1017700080462660246822F0030604F48044009426
:10178000314C3444A446D4F808489607370F0EFA73
:1017900007F6B4432D4EB04201D1002624E02C4E72
:1017A000B04201D101261FE02A4EB04202D10226EA
:1017B0001AE040E0284EB04201D1032614E0274E43
:1017C000B04201D104260FE0254EB04201D10526DA
:1017D0000AE0244EB04201D1062605E0224EB04276
:1017E00001D1072600E00826BE402643CCF8086851
:1017F0001E4E34684F689C43FF0300D51C43346081
:101800001A4C241D26684F689E43BF0300D51E4313
:101810002660164E083634684F689C43FF0200D598
:101820001C433460114E0C3634684F689C43BF0231
:1018300000D51C433460521C102AFFF445AFBDE8AC
:10184000F88F0000443802400030014000000240A0
:101850000004024000080240000C02400010024058
:101860000014024000180240001C0240003C0140ED
:10187000426931EA020200D10904816170470AB16C
:10188000816170470904FBE70148806870470000E8
:101890001800002002488168027811448160704776
:1018A000180000200B4810B5016841F40071016078
:1018B000016841F480610160016841F48071016058
:1018C000032000F08DF8002000F006F800F03EF84C
:1018D000002010BD003C024010B5014688B0002237
:1018E0002C2000F05DF82C2000F04CF81348002468
:1018F000016841F002010160006805A900F00200E2
:101900000690684600F018F900F046F90C494000CE
:10191000B0FBF1F10C480B4A491E026040F2E7327D
:10192000C0E90324C0E9011400F05AFC10B1012001
:1019300008B010BD044800F08BFCF9E744380240C1
:1019400040420F0000040140C80600200C4882B04D
:10195000016841F480410160006800F4804000901B
:101960000748001F016841F08051016000680022B3
:1019700000F0805000900F21901E02B000F010B8CF
:1019800044380240002809DB00F01F020121914089
:101990004009800000F1E020C0F80011704700000D
:1019A000F0B40E4B1B680C46C3F30223C3F10705CA
:1019B000042D00D90425191D072901D2002300E0B8
:1019C000DB1E012606FA05F1491E214099409E4082
:1019D000761E16403143F0BC02F02FB90CED00E04A
:1019E000064900F0070208684FF6FF03184040EA76
:1019F0000220034A10430860704700000CED00E02D
:101A00000000FA052DE9F0470E46050065D0DFF825
:101A10001481D8F80000F7B200F00F00B04207D2EE
:101A200088F80070D8F8000000F00F00B04254D1E0
:101A300028683D4C810712D5400703D5206840F443
:101A4000E05020602878000703D5206840F460400B
:101A500020602068A96820F0F00008432060287802
:101A6000C0072DD0304968680839012812D00228F3
:101A700013D0032811D00968890700292DDA2168BD
:101A800021F0030101432160FFF7FEFE814641F290
:101A9000883A0EE009688903EFE709688901ECE7F5
:101AA000FFF7F2FEA0EB0901514502D90320BDE882
:101AB000F0872068696800F00C00B0EB810FEFD16F
:101AC000D8F80010404601F00F01B14207D9077065
:101AD000006800F00F00B04201D00120E7E728784D
:101AE000400705D52068E96820F4E05008432060ED
:101AF0002878000706D52068296920F4604040EA6C
:101B0000C100206000F058F82168084AC1F30311B1
:101B1000515CC8400649086006480068FFF7DCFED3
:101B20000020C4E7003C024008380240084A000890
:101B3000240000201C0000200F2202600C4A1368C1
:101B400003F003034360136803F0F003836013683A
:101B500003F4E053C36012684FF4E05303EAD20287
:101B600002610448006800F00F0008607047000040
:101B700008380240003C02400448054900680968F2
:101B8000044AC1F38221515CC84070472400002000
:101B900008380240184A00080448054900680968E6
:101BA000044AC1F34231515CC84070472400002010
:101BB00008380240184A0008154810B5006810F0AF
:101BC0000C02144813D01449042A0FD0082A0ED14D
:101BD0000F4C241F2268236802F03F025B0207D5E6
:101BE0002068C0F38810A0FB010106E0084610BD84
:101BF0002168C1F38811A1FB00010023FEF740FB1F
:101C00002168C1F30141491C4900B0FBF1F010BD4E
:101C1000083802400024F400001BB7002DE9F84FFB
:101C200004006ED02078DFF83C93C007A9F10405CA
:101C30004AD009F104000168C1F38101012908D0EB
:101C40000068C0F3810002280AD1D9F800004002E0
:101C500006D52868800337D560680028E1D033E0D6
:101C60006068B0F5803F10D0B0F5A02F286810D084
:101C700020F480302860286820F480202860606884
:101C8000A8B1FFF701FE06460DE0286840F4803059
:101C9000F4E740F480202860F7E700BFFFF7F4FD89
:101CA000801B642873D828688003F7D50CE0FFF701
:101CB000EBFD064605E000BFFFF7E6FD801B64284C
:101CC000F0D828688003F7D42078DFF89C8280075A
:101CD0004FF0000A3ED5A348001D016811F00C0F1B
:101CE00008D00068C0F3810002280BD1D9F80000A9
:101CF000400207D42868800716D5E068012800D183
:101D000012E02BE1E068B8B10120C8F80000FFF74D
:101D1000BBFD064605E000BFFFF7B6FD801B0228AD
:101D2000C0D828688007F7D52868216920F0F80016
:101D300040EAC10028600DE0C8F800A0FFF7A4FD4C
:101D4000064604E0FFF7A0FD801B02281FD8286884
:101D50008007F7D42078000722D5824E8348616936
:101D6000703671B101210160FFF78EFD074604E076
:101D7000FFF78AFDC01B022809D830688007F7D515
:101D80000EE0C0F800A0FFF77FFD074605E082E007
:101D9000FFF77AFDC01B02287DD830688007F7D492
:101DA0002078400768D5DFF8BCB100270BF13C0B69
:101DB000DBF80000C0000BD4DBF8001041F08051CC
:101DC000CBF80010DBF80000012700F080500090F5
:101DD000674E3068C00510D4306840F480703060C1
:101DE000FFF752FD009005E0FFF74EFD0099401A05
:101DF000022850D83068C005F6D55A4EA0686C3617
:101E000001280FD00528306810D020F00100306084
:101E1000306820F004003060A068B8B1FFF734FDEE
:101E200000900FE0306840F00100F4E740F004005B
:101E30003060F7E7FFF728FD0099411A41F288303A
:101E4000814266D830688007F4D50EE0FFF71CFDAC
:101E5000009007E0FFF718FD0099411A41F2883021
:101E6000814256D830688007F4D42FB1DBF80010D7
:101E700021F08051CBF80010A069C8B33949091D81
:101E80000968C1F3810102294AD00228504607D0CF
:101E9000C8F8600000E03CE0FFF7F6FC04463BE0D9
:101EA0004746C8F86000FFF7EFFC064605E000BFB4
:101EB000FFF7EAFC801B02282BD828688001F7D4A2
:101EC000D4E907010843A16A2A4A490802EB014103
:101ED000626A41EA8211084394F82C1040EA0161D9
:101EE000C9F8001001203866FFF7CEFC044606E072
:101EF00036E000BFFFF7C8FC001B022809D828689D
:101F00008001F7D52CE000BFFFF7BEFC001B0228C4
:101F100002D90320BDE8F88F28688001F4D41FE0BF
:101F20000128F7D0D9F80000E26900F4800191425D
:101F300014D1226A00F03F0191420FD147F6C071DF
:101F4000626A0140914209D1A26A00F44031914293
:101F500004D1E16A00F07060884201D00120D9E725
:101F60000020D7E70438024000004742800E474275
:101F7000007000400000FFFF70B5040005D0002590
:101F8000A56294F8510010B106E0012070BD84F8FC
:101F90005050204600F030F8022084F851002068AC
:101FA000016821F040010160D4E901010843D4E94E
:101FB00003121143084361690843218B01F4007146
:101FC0000843E1690843216A0843A16A084321687C
:101FD0000860A069042101EA1040616A0843216891
:101FE00048602068C16921F40061C1616565012014
:101FF00084F85100002070BD2DE9F04186B00646FE
:1020000014216846FEF786F935493068884264D164
:1020100034480024016841F480510160006800F4F4
:10202000805005902F481438016841F0020101608A
:10203000016801F002010591016841F001010160B0
:102040000068022500F0010005901820CDE9000588
:1020500002AA03274FF0050882E89001694622484A
:10206000FFF72AFB8020CDE9000502AA694682E835
:1020700090011E48FFF720FB1E4D1D487F0628607B
:10208000C5E901744FF48068C5E903486C617812B2
:10209000AC61C5E9074028466C62FFF77FFA08B1DA
:1020A000FEF7B3FDF564AE63124D1148603548305C
:1020B000E5E802074020A5E81101C00245F81449EF
:1020C000AC61C5E907400B486C626030FFF766FA07
:1020D00008B1FEF79AFDB564AE6306B0BDE8F081C5
:1020E0000030014044380240000402400000024039
:1020F00010640240A80300207047704710B590F8A4
:102100003C20012A22D0012280F83C20CA688C6839
:1021100022F4407222434C6822F4806222430C680D
:1021200022F4006222430C6922F4805222434C695B
:1021300022F400522243C969002322F480420A4358
:1021400001684A6480F83C30002010BD022010BDB8
:1021500070B590F83C20012A32D0012480F83C4030
:10216000022280F83D2003685A689D6822F07006BC
:102170000A6832435A60134B02689A4214D0B2F193
:10218000804F11D0104B9A420ED0104B9A420BD078
:102190000F4B9A4208D00F4B9A4205D00E4B9A42F1
:1021A00002D00E4B9A4204D1496825F080031943AE
:1021B000916080F83D40002180F83C10084670BDD9
:1021C000022070BD000001400004004000080040F3
:1021D000000C004000040140004001400018004095
:1021E00010B5040003D094F83D0010B107E00120C1
:1021F00010BD002084F83C00204600F00DF80220BD
:1022000084F83D00211D206801F038FA012084F88F
:102210003D00002010BD000008B50068B0F1804FFF
:1022200012D10A48016841F00101016000680022F2
:1022300000F00100009005211C20FFF7B1FBBDE874
:1022400008401C20FFF79EBB08BD0000403802403C
:102250000168CA6842F00102CA600068816801F042
:102260000701062903D0016841F001010160002047
:10227000704770B5044690F83C00012817D001253E
:1022800084F83C50022084F83D002068826822F0E7
:10229000770222F47F4282600868502830D00DDC3B
:1022A00020284DD005DC98B310283BD148E002200F
:1022B00070BD302844D0402834D139E0602828D07F
:1022C000702806D0B0F5805F2CD0B0F5005F29D122
:1022D0000AE0CB68D1E90121206801F040FA2068CA
:1022E000816841F0770109E0CB68D1E901212068DC
:1022F00001F035FA2068816841F48041816011E085
:10230000CA684968206801F0FFFA5021206807E098
:1023100016E0CA684968206801F007FB6021206860
:1023200001F027FA84F83D50002084F83C0070BD8D
:10233000CA684968206801F0E7FA40212068EFE7A1
:10234000226801461046EBE7704770B50446006806
:1023500001694FF00005C943890715D4C168C94315
:10236000890711D4E91E0161012020772068806966
:102370008007204602D0FFF7E7FF04E000F0C2F834
:10238000204600F057F9257720680169C9434907BD
:1023900017D4C168C943490713D46FF00401016120
:1023A000022020772068806910F4407F204602D008
:1023B000FFF7CAFF04E000F0A5F8204600F03AF964
:1023C000257720680169C943090716D4C168C94344
:1023D000090712D46FF008010161042020772068FA
:1023E000C0698007204602D0FFF7AEFF04E000F08E
:1023F00089F8204600F01EF9257720680169C94355
:10240000C90617D4C168C943C90613D46FF01001B7
:102410000161082020772068C06910F4407F2046C1
:1024200002D0FFF791FF04E000F06CF8204600F0C6
:1024300001F9257720680169C943C90708D1C16836
:10244000C943C90704D1891E0161204600F016F96D
:1024500020680169C943090609D4C168C94309064E
:1024600005D46FF0800101612046FFF745FE20682A
:102470000169C943490609D4C168C943490605D45D
:102480006FF040010161204600F002F92068016907
:10249000C94389060BD4C168C943890607D46FF0C4
:1024A000200101612046BDE87040FFF726BE70BDE7
:1024B00010B586B0044614216846FDF72BFF0E497F
:1024C0002068884216D10D480021026842F01002AF
:1024D0000260006800F0100005904FF4205000905A
:1024E0000220CDE901010120CDE90310694604482D
:1024F000FFF7E2F806B010BD00000140303802409E
:1025000000100240704770B5044690F83C000D463C
:1025100001280DD0012684F83C60022084F83D009B
:1025200042B1042A18D0082A2AD00C2A4DD139E009
:10253000022070BD206801F025F92068816941F012
:10254000080181612068816921F0040181612068AE
:1025500081692A69114311E0206801F043F920687C
:10256000816941F4006181612068816921F48061A1
:102570008161206881692A6941EA0221816124E040
:10258000206801F065F92068C16941F00801C16166
:102590002068C16921F00401C1612068C1692A690C
:1025A000114311E0206801F087F92068C16941F406
:1025B0000061C1612068C16921F48061C161206846
:1025C000C1692A6941EA0221C16184F83D600020A5
:1025D00084F83C0070BD10B5040003D094F83D00B1
:1025E00010B107E0012010BD002084F83C00204617
:1025F00000F00CF8022084F83D00211D206801F055
:102600003DF8012084F83D00002010BD08B50068A9
:102610000649884208D10648016841F0010101607D
:10262000006800F00100009008BD000000000140BB
:10263000443802407047000010B50446006801228B
:1026400001F080F80B492068884202D00A4988428C
:1026500003D1416C41F4004141642068816801F07C
:102660000701062903D0016841F001010160002043
:1026700010BD000000000140000401400068034953
:10268000884201D1FFF706B97047000000040140FD
:102690007047704710B5044600680168C9065ED5EA
:1026A00001684068606B0168354881420AD035484E
:1026B000814207D032486030814203D031486030D7
:1026C000814201D1202022E02D4A1832D0149142BB
:1026D0001DD02C4A1832914219D0294A78329142A1
:1026E00015D0284A7832914211D0254A80023032E2
:1026F00091420CD0234A3032914208D0204A903285
:10270000914204D01F4A9032914200D080010A6861
:1027100022F001020A60616B1A4A0968483291424C
:1027200002D91849091F05E0154AA832914203D978
:1027300014490839086008E0114B114A4833103A2F
:10274000994201D9D06000E09060616BA08D09686A
:102750004860606B0068016841F0010101600A484F
:10276000844204D1094901F16400FEF713F80848D6
:10277000844203D1BDE8104001F0E8BD10BD000067
:102780001060024010640240280500209847002095
:10279000E804002070B5026804461068D1685369E7
:1027A00010F00F0F52D003F0010501F490762E4384
:1027B0005FD0C20705D0CA0503D5E26B42F0010223
:1027C000E263420705D5DA0703D0E26B42F002026A
:1027D000E263820705D5DA0703D0E26B42F0040218
:1027E000E263020707D501F020022A4303D0E26B1F
:1027F00042F00802E263E26B002A33D0800604D57F
:10280000880602D5204601F0F4F820684069E16BA3
:10281000C0F38010090700D428B3204601F09FF8C8
:102820002068416949061AD5416921F0400141619A
:10283000606BA0B11B490165606BFEF7CCFD002801
:1028400010D0606B016DBDE870400847830610D55D
:102850008B060ED52046BDE8704001F0CAB8204670
:10286000FFF717FF70BD2046FFF713FF0020E0635E
:1028700070BD030606D50B0604D52046BDE87040A2
:1028800001F096B94006F3D54806F1D5D168204647
:1028900021F04001D160202184F8391000F03EF988
:1028A00070BD00004F39000870B5040004D094F8E2
:1028B0003900002510B106E0012070BD84F83850C1
:1028C000204600F023F8242084F839002068C168ED
:1028D00021F40051C160204601F0D6F8206801695A
:1028E00021F4904101612068416921F02A01416190
:1028F0002068C16841F40051C160E563202084F87C
:10290000390084F83A00002070BD00002DE9F0473E
:1029100086B0054614216846FDF7FCFC7048DFF8D8
:10292000BC811438D5F800C000246D49022603226A
:10293000072307154FF0006AC4454CD1D1F800C0F9
:102940004CF0100CC1F800C0096801F010010591AD
:10295000016841F002010160016801F00201059186
:10296000016841F00101016000680DF1080C00F000
:10297000010005908020CDE90006904699468CE83C
:10298000100369465748FEF797FE3002CDE900066E
:102990000DF1080C69468CE810035348FEF78CFED5
:1029A000534E52483060C6E901A4C6E9034774613A
:1029B000B461F461346230467462FEF7EFFD08B131
:1029C000FEF723F96E6300220F212520B563FEF781
:1029D000E7FF25203FE0DFF81C81C44540D1404996
:1029E000091FD1F800C04CF4802CC1F800C0096860
:1029F00001F480210591016841F004010160006843
:102A0000029400F0040005904FF44060CDE9000608
:102A100069463948CDE90323FEF74EFE344E374868
:102A200060363060C6E901A4C6E9034774614FF41B
:102A30000030B461C6E9074030467462FEF7AEFD6F
:102A400008B1FEF7E2F86E6300220E212720B5637D
:102A5000FEF7A6FF2720FEF795FF06B0BDE8F0873A
:102A6000274B9C45F9D10B6843F020030B600968A4
:102A700001F020010591016841F04001016000680A
:102A8000029400F0400005904FF48440CDE9000628
:102A90000820CDE9032069461A48FEF70DFE144EC2
:102AA0001248C036183830608005C6E90104C6E90E
:102AB00003477461B461F461346230467462FEF7B6
:102AC0006DFD08B1FEF7A1F86E63002206214720D4
:102AD000B563FEF765FF4720BDE700000010014029
:102AE00044380240000402400000024040640240BA
:102AF000A80500200048004000080240286002406D
:102B0000001401400018024030B40368DC6844F04F
:102B10001004DC6030BC00F030BF70477047FEE747
:102B200010B504462DED088B9FED1BBB90ED420BBD
:102B30009FED1B8B9FED1C9B9FED1DAB53EC1B2B47
:102B400051EC100BFDF748FD01D284ED42BB94ED32
:102B5000420B53EC182B51EC100BFDF755FD01D235
:102B600084ED428B94ED440B53EC192B51EC100B7C
:102B7000FDF732FD01D284ED449B94ED440B53EC00
:102B80001A2B51EC100BFDF73FFD01D284ED44AB45
:102B9000BDEC088B10BD0000000000000018A5402F
:102BA000000000000004B040000000000094A140BC
:102BB0000000000000B4A44030B50446C1B026486F
:102BC0009FED260BC4F8180184ED420B9FED250BF9
:102BD0000020264A84ED440B034600BF00EB40056D
:102BE00004EB800102EB85053C35401CC1F81C510B
:102BF000C1F800310228F1DB40221D496846FDF78B
:102C000070FB402269462046FDF76BFB18494022C5
:102C1000403110A8FDF765FB402210A904F18000A7
:102C2000FDF75FFB12494022803120A8FDF759FBD8
:102C3000402220A904F14000FDF753FB0C4940223B
:102C4000C03130A8FDF74DFB402230A904F1C0008F
:102C5000FDF747FB41B030BDFC47002000000000FD
:102C60000090AA40000000000024A340304800204B
:102C7000604A0008016846F66052914202DC524206
:102C8000914200DA026070472DE9F0410646FFF7F5
:102C900047FF002506EBC50006EB851490ED420BBF
:102CA00006EB850784ED000BD7F81C018088FDF743
:102CB00066FCC4E90201204600F03EFB84ED200BD7
:102CC000D7F81C01B0F90600FDF748FCC4E9220161
:102CD00004F1800000F030FB51EC100BFDF75CFCC0
:102CE000C7F8000107F58070FFF7C4FF6D1C022DC7
:102CF000D0DB07480023B0F8E40002B2B6F80401C4
:102D000001B2B6F80001BDE8F04100B201F0F6BA38
:102D1000A846002070B504462DED048BD0F818119C
:102D2000486A28B3364DD4F83C21686882421FDADD
:102D3000C4F83C01B5F90200052690FBF6F004F555
:102D40008474FDF70BFC94ED001B53EC112BFDF785
:102D500090FBC4E90001B5F9000090FBF6F0FDF727
:102D6000FDFB94ED021B53EC112BFDF7DEFA41E065
:102D7000B1F91A00032590FBF5F0FDF7EFFB9FED8D
:102D8000218B41EC100BB0EE481AF0EE681A00F0FF
:102D9000EFFF9FED1E9BB0EE491AF0EE691A01F0AD
:102DA00009F894ED422B51EC100B53EC122B04F567
:102DB0008474FDF7BAFAC4E900012069B0F918007B
:102DC00090FBF5F0FDF7CAFB41EC100BB0EE481A92
:102DD000F0EE681A00F0CCFFB0EE491AF0EE691A76
:102DE00000F0E8FF94ED021B51EC100B53EC112B9B
:102DF000FDF73FFBC4E90201BDEC048B70BD000090
:102E000090000020000000000000D0BF0000000083
:102E10000000D03F642001F083FB0648FFF7CCFEA2
:102E20000448FFF777FF0348FFF72EFF012000F06B
:102E3000DFFFF5E758450020094C4FF4806500227C
:102E400029462046FEF71BFD642000F0D1FF012239
:102E500029462046FEF713FD642000F0C9FFEEE787
:102E6000001C02400F4810B50D490160032141606C
:102E700000214FF410228160C0E903124FF40012C8
:102E80004261017641768176C17601774177FEF71E
:102E90002CF9002803D0BDE81040FDF7B6BE10BDE8
:102EA00000640040AC0000200F4810B50D490160DF
:102EB0000321416000214FF410228160C0E9031218
:102EC0004FF400124261017641768176C176017736
:102ED0004177FEF70AF9002803D0BDE81040FDF75E
:102EE00094BE10BD00680040D40000201D4808B505
:102EF000016841F400110160016801F400110091C2
:102F0000016841F4800101600068002200F4800043
:102F1000009005210C20FEF743FD0C20FEF732FD4A
:102F2000002205213820FEF73BFD3820FEF72AFD60
:102F3000002205213920FEF733FD3920FEF722FD5E
:102F4000002205213A20FEF72BFD3A20FEF71AFD5C
:102F5000002205213B20FEF723FDBDE808403B2071
:102F6000FEF710BD3038024010B5A4B01C221C4939
:102F70006846FDF7B6F90021684600F045FF194C98
:102F800017491C2220611C3107A8FDF7AAF900216E
:102F900007A800F039FF124920601C2238310EA822
:102FA000FDF79FF900210EA800F02EFF0C4960608C
:102FB0001C22543115A8FDF794F9002115A800F042
:102FC00023FF0749A0601C2270311CA8FDF789F976
:102FD00000211CA800F018FFE06024B010BD000024
:102FE00074490008040000202DE9F04786B0142140
:102FF0006846FDF78FF947480025016841F0020156
:103000000160016801F002010591016841F0400191
:103010000160016801F040010591016841F0010182
:103020000160016801F001010591016841F00801AA
:103030000160016801F008010591016841F0040197
:103040000160016801F004010591016841F080010F
:103050000160016801F080010591016841F01001F3
:1030600001600068012200F01000DFF8AC9014024B
:10307000059021464846FEF702FC284F4FF4E056E3
:10308000002231463846FEF7FAFBDFF89480012231
:1030900010214046FEF7F3FBDFF888A0012211461D
:1030A0005046FEF7ECFB0094012469464846019423
:1030B000CDE90245FEF700FBCDE900640226CDE92B
:1030C000026569463846FEF7F7FA1027CDE9007425
:1030D000CDE9024669464046FEF7EEFA0097124FE8
:1030E000CDE9017569464846FEF7E6FA2020CDE9AC
:1030F0000007694602944846FEF7DEFACDE902462B
:103100000094694650460194FEF7D6FA06B0BDE831
:10311000F08700003038024000080240001C0240E6
:10312000000002400004024000002110104810B5C9
:103130000E4901604FF482714160002102228160DA
:10314000C0E9031201224261520282613822C0E9C1
:103150000721416281620A21C162FEF70DFF00284A
:1031600003D0BDE81040FDF750BD10BD0030014058
:103170005003002010B592B000240F941C21684623
:103180001094FDF7C7F8202107A8FDF7C3F82448DD
:1031900022490160A721C0E9011441F26F71C0E921
:1031A000031444618461FFF716FA08B1FDF72DFDA1
:1031B0000F940FA91A481094FEF7CAFF08B1FDF743
:1031C00024FD6020CDE90004029403940494059446
:1031D0000422694612480694FFF795F908B1FDF7F5
:1031E00014FD082269460E48FFF78DF908B1FDF776
:1031F0000CFD0794089409944FF400500A94CDE90B
:103200000B4007A906480E94FEF778FF08B1FDF7BA
:10321000FCFC0348FFF74CF912B010BD0000014060
:103220006804002010B586B000241648009401946C
:103230000294039404944FF0804105940160A72107
:10324000C0E9011440F6B731C0E903148461FEF708
:10325000C7FF08B1FDF7D9FC4FF4805000906946D4
:103260000848FFF706F808B1FDF7CFFC049404A95D
:1032700004480594FEF76CFF002801D0FDF7C5FC5B
:1032800006B010BDA80400200C4810B50A49016022
:103290004FF4E1314160002181600C22C160C0E93E
:1032A00004128161C161FFF7FFFA002803D0BDE875
:1032B0001040FDF7AABC10BD00100140E80400203A
:1032C0000C4810B50A4901600B494160002181603A
:1032D0000C22C160C0E904128161C161FFF7E4FA08
:1032E000002803D0BDE81040FDF78FBC10BD0000E2
:1032F0000048004028050020A08601000C4810B5B9
:103300000A4901604FF4E1314160002181600C22E3
:10331000C160C0E904128161C161FFF7C5FA0028EC
:1033200003D0BDE81040FDF770BC10BD0014014093
:1033300068050020FEE7704710B504462DED068BAA
:1033400090ED0A1B90ED0E0B53EC112B51EC100B72
:10335000FCF7EBFF41EC190B84ED0E9B94EC040B96
:1033600051EC100B53EC112BFDF780F841EC180BCE
:1033700084ED0A8B94ED0C0B53EC102BFDF776F8D3
:1033800041EC100B94ED081B53EC102B51EC110B7E
:10339000FDF772F894ED060B41EC1A0B53EC192B68
:1033A00051EC100BFDF768F894ED040B41EC190B90
:1033B00053EC182B51EC100BFDF75EF853EC192B66
:1033C000FCF7B3FF53EC1A2BFCF7AFFF84ED0C8B2B
:1033D00041EC100BBDEC068B10BD000010B504468F
:1033E000B0B01F4820600C3860601E48C4F8C800A8
:1033F000001DC4F8D000801EC4F8CC0040221A4939
:103400006846FCF76EFF4022694604F10800FCF7AD
:1034100068FF15494022403110A8FCF762FF4022A6
:1034200010A904F14800FCF75CFF402120A8FCF73C
:1034300071FF402220A904F18800FCF752FF04210B
:103440000A48FFF7F9F808210848FFF7F5F80020C7
:10345000C4F8EC0002482038C4F8D40030B010BDE5
:103460001C48002088480020604B000868040020A9
:103470002DE9F041214C05464FF4E1516068401CB4
:103480006060884200DD61606268052092FBF0F3B5
:103490001B490E68B36392FBF0F00968C8632868A3
:1034A00000260068F8B12768012F13D1D5F8EC0089
:1034B00080B90120C5F8EC0095ED360B9FED111B8E
:1034C00051EC100B53EC112BD835FCF72EFFFDF708
:1034D00063F828617F1C41F288302760874200DD55
:1034E0002660BDE8F0819FED090B85ED200B26607D
:1034F000C5F8EC60C5F8E460F3E700009800002030
:10350000680400200000000000005E400000000091
:1035100000000000026842F21C518A4201DD016095
:103520007047002AFCDA0021F9E710B50446D0F80C
:10353000E800FDF713F8C4E9120194ED360B04F12D
:10354000480084ED140BFFF7F7FE51EC100BFDF76C
:1035500023F8C4F8E40004F1E400BDE81040FFF7EC
:10356000D9BF0000642000F0DBFF0848FFF736FFFA
:10357000064800F0ADFB0548FFF7D7FF0348FFF70B
:1035800077FF012000F034FCF2E70000A84600209D
:10359000012000F02DFCFBE710B5502080F31188CE
:1035A000BFF34F8FBFF36F8F01F01EF918B10449BD
:1035B0004FF080500860002080F3118810BD00009B
:1035C00004ED00E030B593B030216846FCF7A2FE70
:1035D00014210CA8FCF79EFE19480025016841F053
:1035E00080510160006800F080501190154801681A
:1035F00041F4804101600068022400F48040119091
:1036000001200090000401908001CDE906400620D1
:103610000890A820CDE9090404200B906846FEF725
:10362000FDFA0CA90F2081E831004FF4A0500F9053
:10363000E002109005210CA8FEF7E4F913B030BDAC
:1036400040380240007000400548016841F47001B4
:10365000016003494FF00060803908607047000046
:1036600088ED00E00148FEF770BE0000A8040020CD
:103670000148FEF76ABE0000C8060020F0B50268E7
:10368000254C264D264E274F274B4FF0804CA0420D
:1036900009D0604507D0A84205D0B04203D0B84257
:1036A00001D0984204D122F0700E4A6842EA0E021C
:1036B000A0421BD0604519D0A84217D0B04215D007
:1036C000B84213D0984211D0184DA8420ED0184DD0
:1036D000A8420BD0174DA84208D0174DA84205D0DC
:1036E000164DA84202D0164DA84203D122F44075CF
:1036F000CA682A434D6922F080022A4302608A6820
:10370000C2620A688262A04201D0984201D109696E
:10371000016301214161F0BD00000140000400404F
:1037200000080040000C004000040140004001403F
:10373000004401400048014000180040001C0040C7
:103740000020004010B501F01F030121046A9940D8
:103750008C430462016A9A401143016210BD10B5A6
:10376000846842EA032224F47F440A4322438260AD
:1037700010BD826822F070020A4342F007018160A6
:1037800070470000F0B5026A22F001020262036A8B
:1037900042688469124E24F073050C682C4323F0B0
:1037A00002058B682B430D4DA84201D0B04205D1D4
:1037B00023F00807CB683B4323F00403A84201D061
:1037C000B04205D14D6922F4407215438A692A43FB
:1037D00042608461496841630362F0BD00000140BA
:1037E00000040140F0B5026A22F010020262026A8F
:1037F000436884690D6824F4E64444EA05248D682E
:1038000022F0200242EA05120F4D104EA84201D0CC
:10381000B04206D1CF6822F0800242EA071222F0BD
:103820004002A84201D0B04207D14D6923F4406361
:1038300043EA85038D6943EA8503436084614968EF
:1038400081630262F0BD00000000014000040140FD
:10385000F0B5026A22F480720262026A4368C469A7
:1038600022F4007224F073050C68124E2C438D680C
:1038700042EA05220E4DA84201D0B04206D1CF68DF
:1038800022F4006242EA072222F48062A84201D0B8
:10389000B04207D14D6923F4405343EA05138D69C3
:1038A00043EA05134360C4614968C1630262F0BD25
:1038B000000001400004014030B5026A22F4805249
:1038C0000262046A4268C3690D6823F4E64343EA6E
:1038D00005238D6824F4005444EA0534084DA842B9
:1038E00002D0084DA84204D14D6922F4804242EA38
:1038F00085124260C36149680164046230BD000002
:10390000000001400004014010B5036A046A24F07D
:1039100001040462846924F0F00444EA021423F0F0
:103920000A020A438461026210BD10B5036A23F0E3
:10393000100303628369046A23F4704343EA02328A
:1039400024F0A00343EA01118261016210BD10B5A9
:10395000806B0021C185C184FEF79BFE10BD01680C
:10396000CA6822F49072CA6001684A6922F00102B2
:103970004A61202180F83A107047F8B5044690F863
:103980003A00202833D179B372B394F83800012873
:103990002DD0012084F83800A162A2850025E563BE
:1039A000222084F83A00606B134605650846666B72
:1039B000216802463046091DFDF75AFE206801685D
:1039C0004168009184F83850C16841F48071C16049
:1039D0002068416941F0010141612068416941F07D
:1039E000400141610020F8BDFFE70120FBE7022014
:1039F000F9E710B590F83A10222901D0022010BD45
:103A00008168B1F5805F11D00169002901681FD07C
:103A1000496801F07F03816A4A1C82620B70C18D84
:103A2000491E0904090CC18518D02BE00269816A7E
:103A3000002A0268526805D0D2B20A80816A491C05
:103A40008162ECE7C2F308020A80816A891CF7E709
:103A50004A68816A4B1C83620A70E0E70168CA68A1
:103A600022F02002CA600168CA6822F48072CA602B
:103A700001684A6922F001024A61202180F83A1067
:103A8000FFF74BF8002010BD2DE9F0410446006817
:103A90000169E26821F44051114301612169A06884
:103AA000E26908436169114308432168CA6849F221
:103AB0000C639A430243CA6020684169A26921F4F9
:103AC000407111434161E069192764253226B0F540
:103AD000004F354A354920684FF0000806D088422B
:103AE00001D0904236D1FEF757F835E0884201D038
:103AF000904202D1FEF750F801E0FEF73DF8616810
:103B00004A18A0FB070148EB0803FCF7B9FB014684
:103B1000B0FBF5F00201B1FBF5F06FF0180358436C
:103B200001EB800006EBC000B0FBF5F000F0F80000
:103B300002EB4002B1FBF5F0584301EB800006EBCD
:103B4000C000B0FBF5F000F0070021681044886069
:103B5000BDE8F081FEF710F861688B0F8A00A0FBCA
:103B60000701FCF78DFB0146B0FBF5F06FF0180282
:103B7000504301EB800006EB0010B0FBF5F000F0C5
:103B8000F002B1FBF5F002EB0012B1FBF5F06FF0C3
:103B90001803584301EB800006EB0010B0FBF5F072
:103BA00000F00F00D1E700000014014000100140B8
:103BB00090F83910212901D0022070478168B1F5B1
:103BC000805F016A0BD04A1C02620268097851606A
:103BD000C18C491E0904090CC1840ED017E0098864
:103BE0000268C1F30801516001690029016A02D02D
:103BF000491C0162ECE7891CFBE70168CA6822F0F6
:103C00008002CA600068C16841F04001C1600020C4
:103C1000704700000148FEF73DBD0000E8040020A9
:103C20000148FEF737BD0000280500200148FEF7D7
:103C3000B1BD000068050020FEE70907090E002855
:103C400004DB00F1E02080F80014704700F00F0062
:103C500000F1E02080F8141D704702E008C8121F30
:103C600008C1002AFAD170477047002001E001C165
:103C7000121F002AFBD1704700B58BB00020012134
:103C8000CDE9060108910090019002900390059003
:103C9000049069460C48FDF72FF80B48FDF768FBC8
:103CA00002210948FCF7B2FF0E20099005906946F1
:103CB0000648FDF721F80548FDF75AFB02210348A5
:103CC000FCF7A4FF0BB000BDAC000020D400002026
:103CD00010B50446642154F8CC0FB0F9000090FBF5
:103CE000F1F0FCF73BFC94ED031B53EC112BFCF7BC
:103CF0001CFBC4E9030110BDFDF7D4FDFFF762FC16
:103D0000FFF772F9FFF7F2F8FFF7BEFAFFF7D8FAFC
:103D1000FFF7F4FAFFF7A6F8FFF7C6F8FFF72AFA5D
:103D2000FFF780FAFFF702FA052208490848FEF774
:103D3000EBFE642207490848FEF7E6FEFFF79CFF0A
:103D4000FFF712F900F05BF8FEE70000984600204C
:103D5000E8040020984700202805002001460020A4
:103D6000842900D0C81C7047884200DC0846704790
:103D700010B52DED048BB0EE418AF0EE618AB0EE05
:103D8000409AF0EE609A53EC182B51EC190BFCF7AB
:103D90003BFC06D2B0EE490AF0EE690ABDEC048B9A
:103DA00010BDB0EE480AF0EE680AF7E7884200DB83
:103DB0000846704710B52DED048BB0EE418AF0EE49
:103DC000618AB0EE409AF0EE609A53EC182B51ECF9
:103DD000190BFCF701FC06D2B0EE490AF0EE690AB5
:103DE000BDEC048B10BDB0EE480AF0EE680AF7E7B0
:103DF00010B500B9012000F093FB002010BD10B5F4
:103E000000F0B4FB002010BD7FB50D4604464169AB
:103E1000B0F9080081B1A16971B1FFF79FFFD4E942
:103E200005128DE80700D4E900102B46226900F046
:103E3000B0FC039004B070BDFFF790FF03A9CDE97B
:103E40000001208A2B4682B2D4E9001000F074FCF5
:103E5000012801D00020EDE70398EBE72DE9F041C0
:103E6000184C0F46054666692068001D00F094FA5C
:103E700038B9206890F82C1001208840A16981434E
:103E8000A161681C07D137B12168BDE8F0410E4837
:103E9000091D00F0C5BA20683544B5424560216867
:103EA00005D2A068BDE8F041091D00F0A1BA606824
:103EB000091D00F09DFA206B854200D22563BDE804
:103EC000F081000028000020E40700202DE9F041E7
:103ED000054600F0B1FA2E4C2069401C2061206894
:103EE0002C4F10B1E06940B32DE025602069012816
:103EF00029D1002606EB860007EB800000F06AFA65
:103F0000761C072EF6D323488C3000F063FA214844
:103F1000A03000F05FFA1F48B43000F05BFA1D4893
:103F2000C83000F057FA1B48DC3000F053FA19484B
:103F30008C3060601430A06005E02068E96AC06AD7
:103F4000884200D82560E06A401CE062E96A0120EE
:103F5000A26988401043A06101EB810007EB80005B
:103F6000291D00F05DFA00F087FAE06900280CD006
:103F70002068E96AC06A884207D207494FF080503A
:103F80000860BFF34F8FBFF36F8FBDE8F081000073
:103F9000280000200807002004ED00E010B50446CA
:103FA00090F8510058B101280CD002280FD05020B1
:103FB00080F31188BFF34F8FBFF36F8FFEE7206B45
:103FC00000F06EFA2046BDE8104000F069BA10BD5E
:103FD00010484FF47051420706D0C01D0D4920F023
:103FE0000700411AC1F570510B4A00230144C2E990
:103FF00000030839103A21F0070111604B600B6093
:104000000B1AC0E9001393604FF000405360D0607A
:1040100070470000F807002074000020144E154C73
:10402000A6F1C8074FF08058DFF84C9012E000BFAF
:1040300000F002FAF068C568281D00F0ADF92069AB
:10404000401E2061E068401EE06000F015FA28463E
:10405000FFF7A4FFE0680028EAD138680128F9D901
:10406000C9F80080BFF34F8FBFF36F8FF2E70000F6
:10407000D00700202800002004ED00E02DE9F047E3
:104080009A46DDE9098481466FF00303206B03EB58
:1040900082021044089E20F00707780707D05020BE
:1040A00080F31188BFF34F8FBFF36F8FFEE70025BA
:1040B00061B1002023180A5C83F834200A5C12B135
:1040C000401C1028F6D384F8435001E084F83450A3
:1040D000072E00D30626E662C4E91165201D00F014
:1040E00084F904F1180000F080F92461C6F107009A
:1040F0006462A061E56484F85050524649463846EF
:1041000000F0BEF82060B8F1000F01D0C8F8004000
:10411000BDE8F08730B5114900E011460A688242D7
:10412000FBD34B685C18844203D140681844486054
:10413000084643681C18944209D1084C103C246876
:10414000A24209D052681A4442600A6812680260AA
:10415000814200D0086030BD0460F9E7740000209F
:1041600006484168096829B14168C968C968496851
:10417000016370474FF0FF31FAE70000280000208C
:1041800008484068401C4FF0500080F3118804D06C
:10419000BFF34F8FBFF36F8FFEE7BFF34F8FBFF3B8
:1041A0006F8FFEE77C0000202DE9F04105460027D7
:1041B00000F012FA314E306808B9FFF709FFF068D5
:1041C00005424BD1C5B3083568070ED005F007008E
:1041D000C0F108000544680707D0502080F311881B
:1041E000BFF34F8FBFF36F8FFEE72DB3706885422B
:1041F00034D82248103001460C6801E020460C46B5
:104200006168A94202D221680029F7D131688C4245
:1042100024D007682168016060680837411B1029B5
:104220000FD96019420708D0502080F31188BFF3DE
:104230004F8FBFF36F8FFEE710E041606560FFF7BF
:1042400069FF61687068401A7060B268904200D27D
:10425000B060F06801430020C4E9000100F028FBD1
:10426000780707D0502080F31188BFF34F8FBFF33A
:104270006F8FFEE73846BDE8F08100006400002043
:1042800010B5031F4FF080741C601B1F21F001014B
:104290001960191F044B0B6014390A60091F6FF075
:1042A000020244380A6010BD8141000810B588B090
:1042B0004FF4007402940024049405940824069496
:1042C000040A8DF800408DF80100080A8DF80200FC
:1042D000100A8DF804008DF80520180A8DF80600E4
:1042E0008DF803108DF8073001236A4602A90248B1
:1042F000FCF79EFC08B010BDAC00002010B588B0E3
:1043000040F2FF14029400240494059408240694B7
:10431000040A8DF800408DF80100080A8DF80200AB
:10432000100A8DF804008DF80520180A8DF8060093
:104330008DF803108DF8073001236A4602A9024860
:10434000FCF776FC08B010BDAC0000200D4810B59D
:104350000178372914D141780B4A837803EB012186
:104360001180C1780079094A00EB01204FF4006107
:1043700010800748FDF77CFA06480168491C016077
:1043800010BD000098460020900000209200002000
:10439000001C024094000020D0E9013201699A60BB
:1043A000D0E901235A604A68824201D182684A609A
:1043B000002202610868401E08600868704700001B
:1043C000034B036003F154000860802010607047C5
:1043D000FC00002000F108014FF0FF32C0E901129B
:1043E000C1600161002101607047002101617047D7
:1043F00030B50B685A1C02D000F1080202E00269D5
:1044000004E02246546825689D42FAD953684B60FF
:1044100099608A60516008610168491C016030BD83
:1044200042684A6093688B60936859609160086144
:104430000168491C01607047502080F31188BFF368
:104440004F8FBFF36F8F0A494868401C48600128AE
:104450000CD10848006810F0FF0F07D0502080F3FF
:104460001188BFF34F8FBFF36F8FFEE770470000D7
:104470007C00002004ED00E00849486828B1401E97
:10448000486001D180F311887047502080F3118873
:10449000BFF34F8FBFF36F8FFEE700007C0000205B
:1044A00070B5002827D0144DA0F108046168E868B1
:1044B000014207D1502080F31188BFF34F8FBFF323
:1044C0006F8FFEE722683AB1502080F31188BFF366
:1044D0004F8FBFF36F8FFEE78143616000F07CF880
:1044E00060686968084468602046FFF713FEBDE80D
:1044F000704000F0DDB970BD640000204FF0E02096
:1045000000210161816105494FF47A720968B1FBAC
:10451000F2F1491E4161072101617047240000202A
:1045200010B5020014D00F48806B38B1502080F3D2
:104530001188BFF34F8FBFF36F8FFEE700F04CF889
:1045400000211046FFF78AFC00F0B2F9002807D1DD
:1045500005494FF080500860BFF34F8FBFF36F8F56
:1045600010BD00002800002004ED00E010B586B06A
:104570000024039405AA04A903A80494FFF720FFCC
:10458000DDE903010094CDE9011000230EA11048DC
:10459000059A00F0FEF80F490028486311D050201A
:1045A00080F31188BFF34F8FBFF36F8F4FF0FF3051
:1045B00008630120C8614C6106B0BDE8104000F0FE
:1045C00041B806B010BD000049444C450000000051
:1045D0001D400008280000200248816B491C8163AF
:1045E00070470000280000201448816B11B10121A0
:1045F00041627047002141628169B1FA81F1C1F1E4
:104600001F0101EB81020E4951F822306BB101EB21
:10461000820101F108034A6852684A609A4201D156
:1046200052684A60D16801607047502080F3118859
:10463000BFF34F8FBFF36F8FFEE70000280000200D
:10464000080700201CB537480168374A914207D156
:10465000502080F31188BFF34F8FBFF36F8FFEE7B9
:1046600000683149491E884207D1502080F31188E3
:10467000BFF34F8FBFF36F8FFEE72C49087801908F
:10468000FF20087008788DF800009DF800009DF864
:10469000002000F0F000904207D0502080F31188F5
:1046A000BFF34F8FBFF36F8FFEE79DF80000204BE5
:1046B00000F0500018700720986005E09DF8002079
:1046C00052008DF80020401E9DF800201206F5D4FF
:1046D0009860032807D0502080F31188BFF34F8FD4
:1046E000BFF36F8FFEE74FF4407098600198087039
:1046F0000C482030016841F470010160016841F00C
:1047000070410160FFF7FAFE00205860FBF76AFD78
:104710000848016841F040410160FBF74FFD00206F
:104720001CBD000000ED00E071C20F4100E400E09C
:104730007C00002034EF00E02DE9FF5F8346DDE9D7
:104740000E87994616468A469000FFF72DFD050014
:104750001CD05420FFF728FD040014D0002025634E
:1047600084F85100CDE90240CDE900874B4632463E
:1047700051465846FFF782FC2046FFF7A7FB012071
:1047800004B0BDE8F09F2846FFF78AFE4FF0FF30E7
:10479000F6E7F0B585B0DDE90B640A9DA6B1DCB1A2
:1047A000542700972663022684F85160002604AF40
:1047B000CDE90246CDE90057FFF760FC2046FFF740
:1047C00085FB049805B0F0BD502080F31188BFF33D
:1047D0004F8FBFF36F8FFEE7502080F31188BFF338
:1047E0004F8FBFF36F8FFEE72DE9F0412E4C00276E
:1047F000A06B40B1206A401C2062606A00B10127B2
:104800003846BDE8F0816669761C666113D1606840
:10481000006838B1502080F31188BFF34F8FBFF389
:104820006F8FFEE76068A1686160A060A06A401CAD
:10483000A062FFF795FC206BDFF87080864209D3F9
:104840006068006880B16068C068C5686868864252
:104850000DD220632068C06A00EB800158F8210067
:104860000128CAD90127C8E74FF0FF30F1E7281D1A
:10487000FFF792FDA86A18B105F11800FFF78CFD4B
:10488000E86A0121A26981401143A16100EB800126
:1048900008EB8100291DFFF7C3FDE86A2168C96A9A
:1048A0008842CDD30127CBE728000020080700204D
:1048B0002DE9F0472C4D00242746A86B38B1FFF7AF
:1048C000BBFDA86B401EA863A86B40B146E050201A
:1048D00080F31188BFF34F8FBFF36F8FFEE7296915
:1048E000224E0120D1B3A6F1B40980463068E8B168
:1048F000F068C46804F11800FFF74EFD201DFFF7B3
:104900004BFDE06AAA6908FA00F11143A96100EBC6
:10491000800109EB8100211DFFF782FDE06A296813
:10492000C96A8842E2D3C5F82480DFE70CB1FFF7FB
:1049300017FC2C6A44B14646FFF756FF00B16E6281
:10494000641EF9D100202862686A38B1084901273D
:1049500038070860BFF34F8FBFF36F8FFFF78CFDF1
:104960003846BDE8F087000028000020BC07002082
:1049700004ED00E0E44B0008913500080000000061
:1049800000000000800000000000000000000000A7
:10499000E04B0008392E0008000000000000000075
:1049A000200000000000000000000000F84B00089C
:1049B000050B0008000000000000000000020000DD
:1049C0000000000000000000F04B0008152E000859
:1049D00003000000000000000002000000000000D2
:1049E00000000000004C00086535000802000000CF
:1049F00000000000000200000000000000000000B5
:104A0000000610160006101600000000000000004E
:104A10000102030406070809000000000102030464
:104A20000000000000000000000000000000000086
:104A3000000000000000284000000000000000000E
:104A40000000000000000000000000000000000066
:104A50000000000000000000000000000000000056
:104A60000000000000000000000000000000000046
:104A700000000000000010400000000000000000E6
:104A80000000000000000000000000000000000026
:104A90000000000000000000000000000000000016
:104AA0000000000000000000000000000000000006
:104AB00000000000008041400000000000000000F5
:104AC00000000000000000000000000000000000E6
:104AD00000000000000000000000000000000000D6
:104AE00000000000000000000000000000000000C6
:104AF000000000000000084000000000000000006E
:104B000000000000000000000000000000000000A5
:104B10000000000000000000000000000000000095
:104B20000000000000000000000000000000000085
:104B300000000000000044400000000000000000F1
:104B40000000000000000000000000000000000065
:104B50000000000000000000000000000000000055
:104B60000000000000000000000000000000000045
:104B7000000000000000F03F000000000000000006
:104B80000000000000000000000000000000000025
:104B90000000000000000000000000000000000015
:104BA0000000000000000000000000000000000005
:104BB0000000000000C08240000000000000000073
:104BC00000000000000000000000000000000000E5
:104BD00000000000000000000000000000000000D5
:104BE0006C65640064656661756C745461736B0018
:104BF000686F6C6465720000636861737369730049
:104C000073686F6F74000000284C000800000020DB
:104C1000AC0000005A3C0008D44C0008AC00002056
:104C2000E44B00006A3C00080000000000000000A7
:104C30000000000000000000000000000000000074
:104C40000100000010000000000000000024F4003B
:104C50000000000000000000000000000000000054
:104C60000000000000000000000000000000000044
:104C70000000000000000000000000000000000034
:104C80000000000000000000000000000000000024
:104C90000000000000000000000000000000000014
:104CA0000000000000000000AAAAAAAA000000005C
:104CB00060F0A00F0000A00F000000000000000046
:104CC00000000000000000000000000000000000E4
:044CD00000000000E0
:040000050800018965
:00000001FF
